:10000000112480914000811105C098ED21E094BF3A
:100010002093410083FD03C0982F977341F42A98E1
:10002000809340008CBB80E071D10C94000280B1C1
:100030008A6880B9099A81B1877781B9229A2A980A
:1000400081E080930102809182128370813039F4C3
:100050008CE590E0809308089093090806C083E738
:1000600090E0809308089093090881E080930B0842
:1000700083E0809307081092050886EC80930608B9
:100080008BE08093040842D100E014E09BE0892ECD
:1000900023E0922E1AD1803871F480E037D1FCD061
:1000A000E3D080E00BD180E009D180E007D180E08F
:1000B00005D1DED0EFCF813C09F031C0EDD0D4D0F6
:1000C00080E0FCD085E0FAD0C09100116C2F8FEF5A
:1000D0009FEFE6D07C018C2FF1D0C09101116C2FE5
:1000E000C701DED07C018C2FE9D0C09102116C2FAA
:1000F000C701D6D07C018C2FE1D061E0C701D0D000
:10010000EC0181E0DBD060E0CE01CAD0EC0180E000
:10011000D5D08D2FD3D08C2FD1D0AAD0BBCF8234C5
:1001200099F4EAD0E9D0082FE7D0182FE5D0E4D031
:10013000B3D09AD080E0C2D080E0C0D080E0BED002
:1001400080E0BCD095D0A6CF833009F037C0D4D0A2
:10015000C82F682F8FEF9FEFA3D07C01C801905864
:10016000C80FD92FD11D6E0188E0C80ED11CC4D094
:100170005E019FEFA91AB90A8883682FC70190D042
:100180007C01E501AC14BD0491F7B6D0C82FD0E0D6
:10019000DC2FCC27B1D0C82B7FD066D0CE15DF05A1
:1001A00019F480E08BD002C081E088D080E086D056
:1001B00080E084D080E082D05BD06CCF843CA1F41E
:1001C000EDE9E4BF90920010809102108370E1F796
:1001D00063D04AD080E072D080E070D080E06ED0F2
:1001E00080E06CD045D056CF853859F585D0A82E03
:1001F00083D082D0C8019058A80EB92EB11C4CD023
:1002000033D080E05BD088E059D07501F8E0EF0E84
:10021000F11CCFEFDFEF65018FEFC81AD80AF501A7
:10022000B0806B2DCE013CD0EC018B2D47D0560118
:10023000EC14FD0481F78D2F41D08C2F3FD018D0C6
:1002400029CF863071F428D00FD080E037D080E0FD
:1002500035D080E033D080E031D00AD081E056D074
:10026000FFCF8092040816CF81B1886881B90895C4
:100270008091040886FFFCCF80E48093040881B15C
:10028000877781B98BE0809304088091040887FF09
:10029000089580910008F9CF86E98A95F1F70895CD
:1002A000962728E0AC01880F991F57FF04C031E260
:1002B000832730E193272150A9F7089590910408EE
:1002C00095FFFCCF8093020808953BE090E080E02A
:1002D0002091040827FF07C02A9880910108809187
:1002E0000008A89508952091040823FD3093040880
:1002F000019771F7329AEACF8091040887FFFCCF0B
:100300008091010880910008A895089590910101BD
:0E03100090FDFCCF98ED94BF809300010895FE
:0203FE000001FC
:00000001FF
