:1000000011248FEF8DBF8FE38EBF80B1826980B9DD
:10001000099A81B18F7681B984B1846184B92A98B3
:100020002C9A81E08093010280918212837081304A
:1000300039F487E594E0809308089093090806C096
:100040008CE695E0809308089093090883E08093FC
:1000500007081092050880EC8093060804C0809180
:100060000108809100088091040887FDF8CF81E0A5
:1000700094E82ED18DE394E82BD186E794E828D13B
:100080008BEA94E825D1809108089091090864D101
:1000900088EC94E81DD183E094E81AD111E08091B6
:1000A000040887FFB3C0E0910C388091010880916B
:1000B0000008E1110DC0823009F0C8C080930438F7
:1000C00010930C3810920238109203382A9A9EC06E
:1000D000E0901138F090123860910F38709110381C
:1000E00091E09E0F90930C38F0E0EC5FF74C80832A
:1000F0001092023810920338983009F087C02FEF21
:10010000E21AF20AE0921138F0921238C0910B38DC
:10011000C330B9F080910D3890910E3801968093DC
:100120000D3890930E3886EF94E8D2D0C70114D1E1
:1001300081E095E8CDD08C2FE0D088EA94E8C8D053
:100140005EC0D091053880910638409107382091E3
:10015000083800910938D0900A38CD2FC80FCE5FEB
:10016000C40FC20FC00FDC16F9F06F5F7F4F6093B2
:100170000F387093103800E02D2D4C2F65E18D2F36
:10018000FBD086EF94E8A4D0C701E6D08FE095E8D5
:100190009FD08D2DB2D084E295E89AD08C2FADD02F
:1001A00088EA94E895D02BC0813031F40E2D2AEAEC
:1001B00066E08D2FE1D016C0823021F466E08D2FED
:1001C000DBD010C0833041F44F2D5527062F2E2D44
:1001D00066E08D2FD1D006C000E020E0482F66E118
:1001E0008D2FCAD08CE295E873D0C701B5D083E3D8
:1001F00095E86ED08D2F81D08CE395E869D0109270
:100200000C3810920038109201382A98C0910C389E
:10021000CC23E1F0809102389091033801968093CD
:10022000023890930338813E9E4280F082E495E844
:100230004FD080E38C0F33D087EA94E849D01092F6
:100240000C3810920238109203382A9880910038A6
:100250009091013801968093003890930138892B52
:1002600009F01DCF8CE695E833D08091113890913C
:10027000123872D084E895E82BD080910F38909195
:1002800010386AD08FE895E823D0129B02C081E332
:1002900001C080E304D088EA94E81AD000CF2C98FB
:1002A000E6E5F0E03197F1F798E023E530E080FFF4
:1002B0000DC02C9A8695F9013197F1F79150B9F755
:1002C0002C9A86E590E00197F1F708952C98F2CFEB
:1002D0000F931F93CF93DF93EC018C010F571F4FA8
:1002E0008991882319F0C017D10729F4DF91CF91A4
:1002F0001F910F910895D3DFF3CF1F93CF93DF9317
:10030000CDB7DEB76197CDBFDEBF182F81E1E0EF3B
:10031000F3E8DE01119601900D928A95E1F7E12F45
:10032000E295EF7081E090E08C0F9D1F8E0F911D84
:10033000FC018081B4DFE12FEF7081E090E08C0F51
:100340009D1F8E0F911DFC0180816196CDBFDEBF88
:10035000DF91CF911F91A3CFCF93DF93EC018D2F2E
:10036000CCDF8C2FDF91CF91C8CF9091040895FFFF
:10037000FCCF809302080895EF92FF920F931F9392
:10038000CF93DF93E82EF62E142FD22FC2E0C00FAA
:10039000C20FC40FC60FC80F81B1806981B98EE347
:1003A00093E00197F1F782E0E0DF8E2DDEDF8F2D05
:1003B000DCDF812FDADF8D2FD8DF802FD6DF8C2F87
:1003C000D4DF83E0D2DF8091040886FFFCCF80E495
:1003D000809304088EE393E00197F1F781B18F7663
:1003E00081B9DF91CF911F910F91FF90EF90089508
:1003F000303132333435363738394142434445465B
:10040000000D0A3D3D3D3D3D3D3D3D3D3D3D3D3DBC
:100410003D3D3D3D3D3D3D3D3D3D3D3D3D3D3D3D0C
:100420003D3D3D3D3D3D3D3D3D3D3D3D3D3D3D3DFC
:100430003D3D3D3D3D3D3D3D3D3D0D0A00205B4286
:100440004F4F545D20436F72652D442052532D341D
:100450003835205061636B65742042656E63686D4A
:1004600061726B2076312E302040203936303020BA
:100470006270730D0A002050726F746F636F6C3A74
:1004800020382D427974652046697865642046726B
:10049000616D6520285354583D307830322C20450A
:1004A00054583D30783033290D0A002055534152BD
:1004B00054303A204E6F726D616C20554152542079
:1004C000424155443D3078000D0A2044453D50419D
:1004D000342C202F52453D5041372028496E6974F5
:1004E00069616C697A656420746F205258204D6F81
:1004F0006465290D0A005B504B542045525220235D
:10050000005D20426164204554583A203078005DF7
:10051000204261642043686B73756D3A20476F74A5
:100520002030780020457870203078005B504B54A4
:100530002023005D205345513D307800204F4B0D66
:100540000A005B504B5420544F5D20496E636F6D21
:10055000706C65746520706B74206469736361727C
:10056000646564202862797465733D005B49444C7E
:100570004520393630305D20546F74616C506B7497
:100580003D3078002043686B4572723D3078002022
:050590005041323D0066
:00000001FF
