:1000000011248FEF8DBF8FE38EBF80B1826980B9DD
:10001000099A81B18F7681B984B1846184B92A98B3
:100020002C9A81E08093010280918212837081304A
:1000300039F487E594E0809308089093090806C096
:100040008CE695E0809308089093090883E08093FC
:1000500007081092050880EC8093060804C0809180
:100060000108809100088091040887FDF8CF81E69F
:1000700092E8A1D08DE992E89ED081ED92E89BD0E4
:100080008091080890910908DAD082E293E893D031
:100090008AEF92E890D086E293E88DD083E692E8EA
:1000A0008AD0D12CC12CD0E0C0E08EE3A82E83E012
:1000B000B82E00E48091040887FF41C080910108B8
:1000C00010910008E0900038F09001388FEFE81AA6
:1000D000F80AE0920038F09201382A9A80E593E815
:1000E0006AD0C701ACD088E593E865D0812F78D07D
:1000F00083E693E860D080EE810F8F3510F4812F76
:1001000001C08EE23FD087E693E855D081B1806987
:1001100081B9C5010197F1F78091040885FFFCCFF3
:10012000109302088091040886FFFCCF0093040816
:10013000C5010197F1F781B18F7681B92A9821968F
:1001400009F0B8CF8FEFC81AD80AC6018370992773
:10015000892B09F0AFCF87E793E82DD0129B02C01F
:1001600081E301C080E30ED08CE893E824D0809135
:1001700000389091013863D083E293E81CD0D0E03E
:10018000C0E098CF2C98E6E5F0E03197F1F798E0E1
:1001900023E530E080FF0DC02C9A8695F901319758
:1001A000F1F79150B9F72C9A86E590E00197F1F7B5
:1001B00008952C98F2CF0F931F93CF93DF93EC0108
:1001C0008C010F571F4F8991882319F0C017D10751
:1001D00029F4DF91CF911F910F910895D3DFF3CFD1
:1001E0001F93CF93DF93CDB7DEB76197CDBFDEBF4F
:1001F000182F81E1E0E5F2E8DE01119601900D9201
:100200008A95E1F7E12FE295EF7081E090E08C0FA5
:100210009D1F8E0F911DFC018081B4DFE12FEF70D7
:1002200081E090E08C0F9D1F8E0F911DFC0180815D
:100230006196CDBFDEBFDF91CF911F91A3CFCF934A
:10024000DF93EC018D2FCCDF8C2FDF91CF91C8CFC6
:1002500030313233343536373839414243444546FC
:10026000000D0A3D3D3D3D3D3D3D3D3D3D3D3D3D5E
:100270003D3D3D3D3D3D3D3D3D3D3D3D3D3D3D3DAE
:100280003D3D3D3D3D3D3D3D3D3D3D3D3D3D3D3D9E
:100290003D3D3D3D3D3D3D3D3D3D0D0A00205B4228
:1002A0004F4F545D20436F72652D442053696D702C
:1002B0006C652052532D34383520427974652045C1
:1002C00063686F2050726F62652076312E300D0AA0
:1002D00000205553415254303A204E6F726D616C7C
:1002E00020554152542040203936303020627073FE
:1002F0002028424155443D3078002044453D50413E
:10030000342C202F52453D5041372028496E6974C6
:1003100069616C697A656420746F205258204D6F52
:100320006465290D0A002057616974696E6720664B
:100330006F72206279746573206F6E2052532D3472
:1003400038352028434F4D3139292E2E2E0D0A00E5
:100350005B4543484F2023005D20526563763A2079
:10036000307800202827002729202D3E204563686B
:100370006F696E670D0A005B49444C452039363081
:10038000305D205041325F70696E3D0020456368EA
:080390006F436E743D307800EC
:00000001FF
