:1000000011248FEF8DBF8FE38EBF80B1826980B9DD
:10001000099A81B18F7681B9229A2A9881E08093DA
:100020000102809182128370813039F487E594E077
:10003000809308089093090806C08CE695E08093A9
:1000400008089093090883E0809307081092050838
:1000500080EC8093060804C080910108809100081C
:100060008091040887FDF8CF26E00EC0309101088A
:1000700030910008323011F42A9A0DC0019731F402
:10008000329A215009F44AD190E080E0309104087E
:1000900037FFF4CFEBCF31D10297E9F72ED15C01D6
:1000A0008F3F910509F0B8F728D16C018FEFC81682
:1000B000D10409F080F721D1EC018F3F910509F0BF
:1000C00050F71BD14C019FEF8916910409F018F7E6
:1000D000FA2C0C2D1C2FE82C62E08FEF9FEFBCD088
:1000E0006A2DBAD06C2DB8D06C2FB6D0682DB4D094
:1000F0005C01D12CC12C14C000D18F3F910511F0AF
:1001000008F0C9CF2FE3291520F0F601E050F84C94
:100110008083682FC501A0D05C018FEFC81AD80A70
:100120009C2CCE1448F38FC0E8D04C019FEF891669
:10013000910411F008F0AFCFE0D0039709F0ABCFF6
:10014000DC2CCC248C289D28A814B90439F000E0BC
:1001500021E0412F65E18F2D94D09DCF013039F4FE
:1001600000E220E0412F66E08F2D8BD094CF02304B
:1001700039F401E220E0412F66E08F2D82D08BCF51
:10018000003171F5103118F020E4E21639F000E08A
:1001900022E0412F65E18F2D74D07DCF96E0CC0F0A
:1001A000DD1F9A95E1F7E0E0F8E3C050D84BDE019F
:1001B000AE0FBF1F81918C9388E3E034F807B9F745
:1001C00083E09DE994BF80930010809102108370BA
:1001D000E1F700E020E0412F66E08F2D52D05BCFA9
:1001E0000131E9F4DE5F86E0CC0FDD1F8A95E1F78F
:1001F0006E0120E4C20ED11C8FEF9FEF5E012FEF46
:10020000A21AB20A688128D0E501AC14BD04B1F786
:10021000082F20E0412F66E08F2D33D03CCF0032F5
:1002200059F400E020E0412F66E08F2D2AD08CE6C3
:1002300090E20197F1F772D000E023E0412F65E1F1
:100240008F2D1FD028CF59D06C018FEFC816D10445
:1002500009F008F469CF1FCF962728E0AC01880F7A
:10026000991F57FF04C031E2832730E193272150C3
:10027000A9F708959091040895FFFCCF8093020898
:100280000895EF92FF920F931F93CF93DF93E82E81
:10029000F62E142FD22FC2E0C00FC20FC40FC60F0C
:1002A000C80F81B1806981B98EE393E00197F1F7BE
:1002B00082E0E0DF8E2DDEDF8F2DDCDF812FDADFC5
:1002C0008D2FD8DF802FD6DF8C2FD4DF83E0D2DFD5
:1002D0008091040886FFFCCF80E4809304088EE3BD
:1002E00093E00197F1F781B18F7681B9DF91CF91DA
:1002F0001F910F91FF90EF90089581E89EE3209168
:10030000040827FF06C0809101088091000890E052
:1003100008950197A1F78FEF9FEF089510920608B7
:0E03200081B18F7681B92A980C940002FFCF2C
:0203FE000002FB
:00000001FF
