:10000000112480914000811105C098ED21E094BF3A
:100010002093410083FD03C0982F977341F42A98E1
:10002000809340008CBB80E054D10C94000280B1DE
:100030008A6880B9099A81B1877781B9229A2A980A
:1000400081E080930102809182128370813039F4C3
:100050008CE590E0809308089093090806C083E738
:1000600090E0809308089093090881E080930B0842
:1000700083E0809307081092050886EC80930608B9
:100080008BE08093040825D100E014E02BE0D22E11
:1000900033E0C32E07D1803871F480E01AD1E9D063
:1000A000D0D080E0F8D080E0F6D080E0F4D080E0DE
:1000B000F2D0CBD0EFCF813C09F031C0DAD0C1D043
:1000C00080E0E9D085E0E7D0C09100116C2F8FEF80
:1000D0009FEFD3D07C018C2FDED0C09101116C2F0B
:1000E000C701CBD07C018C2FD6D0C09102116C2FD0
:1000F000C701C3D07C018C2FCED061E0C701BDD039
:10010000EC0181E0C8D060E0CE01B7D0EC0180E026
:10011000C2D08D2FC0D08C2FBED097D0BBCF823411
:1001200099F4C0D0BFD0082FBDD0182FBBD0BAD003
:10013000A0D087D080E0AFD080E0ADD080E0ABD061
:1001400080E0A9D082D0A6CF833009F03FC0AAD0EA
:10015000982E580180E8B81AEE24EA94FE2CA2D01A
:10016000E5012196F5018083682FC70186D07C01C7
:100170009A945E019110F3CF95D0C82FD0E0DC2F78
:10018000CC2790D0C82BEC16FD0661F072D059D068
:1001900081E081D080E07FD080E07DD080E07BD0A6
:1001A00054D078CFFDE9F4BFC092001080910210C6
:1001B0008370E1F75ED045D080E06DD080E06BD0F9
:1001C00080E069D080E067D040D064CF843C31F5D6
:1001D000780180E8F81A4DD034D080E05CD080E41B
:1001E0005AD05801E0ECAE1AEFE7BE0ACFEFDFEFCE
:1001F0004701FFEF8F1A9F0AF701F0806F2DCE01A4
:100200003CD0EC018F2D47D07401A814B90481F7BC
:100210008D2F41D08C2F3FD018D03CCF853871F432
:1002200028D00FD080E037D080E035D080E033D0C8
:1002300080E031D00AD081E04CD0FFCFD0920408CA
:1002400029CF81B1886881B908958091040886FF1B
:10025000FCCF80E48093040881B1877781B98BE07B
:10026000809304088091040887FF08958091000816
:10027000F9CF86E98A95F1F70895962728E0AC0131
:10028000880F991F57FF04C031E2832730E193277D
:100290002150A9F708959091040895FFFCCF809311
:1002A000020808953BE090E080E02091040827FFD9
:1002B00007C02A988091010880910008A8950895A8
:1002C0002091040823FD30930408019771F7329AB6
:1002D000EACF9091010190FDFCCF98ED94BF8093FF
:0402E000000108957C
:0203FE000001FC
:0E04000084E080932104809326040000FECF48
:00000001FF
