:1000000011248FEF8DBF8FE38EBF80910101982F58
:10001000917080FDFACF88ED84BF9093000180B18C
:100020008A6880B9099A81B1877781B984B184617E
:1000300084B92A982C9A81E08093010280918212DF
:100040008370813039F48BE292E0809308089093BA
:10005000090806C086EB92E080930808909309088F
:1000600081E080930B0883E08093070810920508D5
:1000700086EC809306088BE0809304088FEA93E86F
:100080002CD185EF93E829D1809140003BD189E5BF
:1000900094E823D1809108089091090862D18BE7F8
:1000A00094E81BD1809104082DD18AE994E815D1F8
:1000B000129B02C081E301C080E3F6D08FEF93E88A
:1000C0000CD13BE0E32E46E9D42E50E4C52ED0E01F
:1000D000C0E010E000E08091040883FF1CC0809124
:1000E0000038909101380196809300389093013840
:1000F000E092040887E494E8F0D080910808909199
:1001000009082FD18BE794E8E8D080910408FAD051
:1001100082EF93E8E2D08091040887FF6EC02A98AE
:1001200080910108F090000882E694E8D6D0C09152
:100130000238D09103382196CE0113D18CE694E891
:10014000CCD08F2DDFD089E594E8C7D08091080806
:100150009091090806D18BE794E8BFD080910408FC
:10016000D1D0C0930238D093033800910808109181
:1001700009088D2D8A95F1F781B1886881B980E0F1
:10018000F9D087E0F7D08F2DF5D06F2D8FEF9FEF4F
:10019000F8D05C018D2E9924882DECD0682DC501F6
:1001A000F0D05C018C2FE6D06C2FC501EAD05C0149
:1001B000C0910038D09101388D2E9924882DDAD045
:1001C000682DC501DED05C018C2FD4D06C2FC50109
:1001D000D8D05C01C12FDD278C2FCCD06C2FC5016E
:1001E000D0D0EC01802FC6D0602FCE01CAD0EC0158
:1001F0008D2FC0D08C2FBED02FC00150110909F017
:100200006ACF329A2196CE0183709927892B09F003
:1002100060CF85E794E861D08091040873D08AE9C3
:1002200094E85BD0129B02C081E301C080E33CD024
:1002300082E894E852D0809102389091033891D0AE
:1002400088E894E84AD0809100389091013889D0AC
:1002500082EF93E842D03DCF8091040886FFFCCF27
:10026000C092040881B1877781B9C2B1C470E092AD
:10027000040804C08091010880910008809104085E
:1002800087FDF8CF80E994E828D081E3C11101C04F
:1002900080E30AD08BE794E820D08091040832D024
:1002A00082EF93E81AD013CF2C98E6E5F0E031976F
:1002B000F1F798E023E530E080FF0DC02C9A869599
:1002C000F9013197F1F79150B9F72C9A86E590E052
:1002D0000197F1F708952C98F2CF0F931F93CF93C6
:1002E000DF93EC018C010F571F4F8991882319F080
:1002F000C017D10729F4DF91CF911F910F91089575
:10030000D3DFF3CF1F93CF93DF93CDB7DEB76197E2
:10031000CDBFDEBF182F81E1EEE9F3E8DE011196D3
:1003200001900D928A95E1F7E12FE295EF7081E05F
:1003300090E08C0F9D1F8E0F911DFC018081B4DF1A
:10034000E12FEF7081E090E08C0F9D1F8E0F911DCB
:10035000FC0180816196CDBFDEBFDF91CF911F91FF
:10036000A3CFCF93DF93EC018D2FCCDF8C2FDF91C8
:10037000CF91C8CF9091040895FFFCCF80930208DD
:100380000895962728E0AC01880F991F57FF04C0F5
:0E03900031E2832730E193272150A9F7089529
:10039E0030313233343536373839414243444546AD
:1003AE00000D0A3D3D3D205B424F4F545D20436F93
:1003BE0072652D44204C4E2D3438352044696167CA
:1003CE006E6F737469632050726F626520283936C0
:1003DE00303062707320536F66742D55415254291C
:1003EE00203D3D3D0D0A002052535446523D30787B
:1003FE00000D0A3D3D3D3D3D3D3D3D3D3D3D3D3DBF
:10040E003D3D3D3D3D3D3D3D3D3D3D3D3D3D3D3D0E
:10041E003D3D3D3D3D3D3D3D3D3D3D3D3D3D3D3DFE
:10042E003D3D3D3D3D3D3D3D3D3D3D3D3D3D3D3DEE
:10043E003D3D3D3D3D3D0D0A005B53594E435F45ED
:10044E0052525D2049534649463D31204241554462
:10045E003D3078005B4652414D45203078005D209E
:10046E005049443D3078005B49444C455D2053541F
:10047E003D30780020463D307800204953463D30CF
:10048E007800205B54585F444F4E455D20525844CF
:02049E003D001F
:00000001FF
