:1000000011248FEF8DBF8FE38EBF80910101982F58
:10001000917080FDFACF88ED84BF9093000180B18C
:100020008A6880B9099A81B1877781B9229A2A981A
:1000300081E080930102809182128370813039F4D3
:100040008BE292E0809308089093090806C086EB43
:1000500092E0809308089093090881E080930B0850
:1000600083E0809307081092050886EC80930608C9
:100070008BE0809304083BE0F32E46E9E42E50E445
:10008000752EC0910038D09101380CC02091040821
:1000900023FF03C02196F0920408019729F4329AB5
:1000A000F092040890E080E02091040827FFEECF52
:1000B000C0930038D09301382A9880910108B090FD
:1000C000000800910238109103380F5F1F4F009312
:1000D000023810930338C0900808D09009088E2D7C
:1000E0008A95F1F781B1886881B980E04CD087E0CA
:1000F0004AD08B2D48D06B2D8FEF9FEF4BD04C010A
:10010000A12EBB248A2D3FD06A2DC40143D05C01AF
:10011000802F39D0602FC5013DD08C01AD2EBB247E
:100120008A2D31D06A2DC80135D08C018C2F2BD06F
:100130006C2FC8012FD08C01CD2DDD278C2F23D023
:100140006C2FC80127D0EC018C2D1DD06C2DCE0159
:1001500021D0EC018D2F17D08C2F15D08091040861
:1001600086FFFCCF7092040881B1877781B9F09245
:10017000040804C08091010880910008809104085F
:1001800087FDF8CF7ECF9091040895FFFCCF809338
:1001900002080895962728E0AC01880F991F57FFA1
:1001A00004C031E2832730E193272150A9F7089555
:00000001FF
