:1000000011248FEF8DBF8FE38EBF80910101982F58
:10001000917080FDFACF88ED84BF9093000180B18C
:100020008A6880B9099A81B1877781B9229A2A981A
:1000300081E080930102809182128370813039F4D3
:100040008CE590E0809308089093090806C083E748
:1000500090E0809308089093090881E080930B0852
:1000600083E0809307081092050886EC80930608C9
:100070008BE0809304083BE0D32E46E9C42E50E485
:10008000752EC0910038D09101380AC02091040823
:1000900023FF03C02196D0920408019719F4329AE5
:1000A00090E080E02091040827FFF0CFC093003853
:1000B000D09301382A9880910108B09000080091EF
:1000C0000238109103380F5F1F4F009302381093CE
:1000D0000338E0900808F09009088C2D8A95F1F714
:1000E00081B1886881B980E04AD087E048D08B2D03
:1000F00046D06B2D8FEF9FEF49D04C01A12EBB2432
:100100008A2D3DD06A2DC40141D05C01802F37D0AB
:10011000602FC5013BD08C01AD2EBB248A2D2FD082
:100120006A2DC80133D08C018C2F29D06C2FC801C7
:100130002DD08C01CF2DDD278C2F21D06C2FC80125
:1001400025D0EC018E2D1BD06E2DCE011FD0EC01E1
:100150008D2F15D08C2F13D08091040886FFFCCFF3
:100160007092040881B1877781B9D092040802C0E7
:10017000809100088091040887FDFACF82CF90918A
:10018000040895FFFCCF809302080895962728E085
:10019000AC01880F991F57FF04C031E2832730E17B
:0801A00093272150A9F70895EF
:00000001FF
