:1000000011248FEF8DBF8FE38EBF80910101982F58
:10001000917080FDFACF88ED84BF9093000180B18C
:100020008A6880B9099A81B1877781B984B184617E
:1000300084B92A982C9A81E08093010280918212DF
:100040008370813039F48BE292E0809308089093BA
:10005000090806C086EB92E080930808909309088F
:1000600081E080930B0883E08093070810920508D5
:1000700086EC809306088BE08093040885EC93E877
:1000800041D18CEF93E83ED188E394E83BD1809155
:10009000400043D185E394E835D18DE494E832D132
:1000A000809108089091090867D185E394E82AD1E6
:1000B00082E694E827D1809104082FD185E394E863
:1000C00021D187E794E81ED1129B02C081E301C0D1
:1000D00080E3F5D085E394E815D187EC93E812D15D
:1000E0003BE0E32E46E9D42E50E4C52ED0E0C0E03C
:1000F00010E000E08091040883FF1CC0809100386C
:1001000090910138019680930038909301388AE8E5
:1001100094E8F8D080910808909109082DD18FEBD0
:1001200094E8F0D080910408F8D085E394E8EAD010
:10013000E09204088091040887FF6EC02A9880919D
:100140000108F090000886EA94E8DCD0C0910238FB
:10015000D09103382196CE010FD180EB94E8D2D014
:100160008F2DDBD08DE994E8CDD080910808909157
:10017000090802D18FEB94E8C5D080910408CDD056
:10018000C0930238D09303380091080810910908F1
:100190008D2D8A95F1F781B1886881B980E0F5D01D
:1001A00087E0F3D08F2DF1D06F2D8FEF9FEFF4D03C
:1001B0005C018D2E9924882DE8D0682DC501ECD0E6
:1001C0005C018C2FE2D06C2FC501E6D05C01C091A0
:1001D0000038D09101388D2E9924882DD6D0682DE5
:1001E000C501DAD05C018C2FD0D06C2FC501D4D0E2
:1001F0005C01C12FDD278C2FC8D06C2FC501CCD05E
:10020000EC01802FC2D0602FCE01C6D0EC018D2F23
:10021000BCD08C2FBAD02BC00150110909F06ACF85
:10022000329A2196C0FD64CF89EB94E86BD080911F
:10023000040873D089EE94E865D0129B02C081E374
:1002400001C080E33CD08AEC94E85CD08091023815
:100250009091033891D085ED94E854D08091003886
:100260009091013889D085E394E84CD041CF8091BA
:10027000040886FFFCCFC092040881B1877781B95A
:10028000C2B1C470E092040804C08091010880915A
:1002900000088091040887FDF8CF8FED94E832D0F4
:1002A00081E3C11101C080E30AD08FEB94E82AD02A
:1002B0008091040832D085E394E824D017CF2C989D
:1002C0009BE19A95F1F730E020E0082E000C990BA5
:1002D0005AE1BC01022E02C0759567950A94E2F7B7
:1002E00060FF0EC02C9A452F4A95F1F72F5F3F4FC4
:1002F0002830310571F72C9A8CE18A95F1F7089531
:100300002C98F1CFCF93DF93EC018991811103C039
:10031000DF91CF910895D3DFF8CF1F93CF93DF9371
:10032000CDB7DEB76197CDBFDEBF182F81E1E4EB1B
:10033000F3E8DE01119601900D928A95E1F7E12F25
:10034000E295EF7081E090E08C0F9D1F8E0F911D64
:10035000FC018081B4DFE12FEF7081E090E08C0F31
:100360009D1F8E0F911DFC0180816196CDBFDEBF68
:10037000DF91CF911F91A3CFCF93DF93EC018D2F0E
:10038000CCDF8C2FDF91CF91C8CF9091040895FFDF
:10039000FCCF809302080895962728E0AC01880FCF
:1003A000991F57FF04C031E2832730E19327215082
:0403B000A9F708950C
:00000001FF
