:100400002C98E6E5F0E03197F1F798E023E530E04D
:1004100080FF0DC02C9A8695F9013197F1F7915024
:10042000B9F72C9A86E590E00197F1F708952C989A
:10043000F2CFCF93DF93EC018991811103C0DF915B
:10044000CF9108950E940002F7CF11248FEF8DBF46
:100450008FE38EBF84B1846184B92A982C9A80E39B
:1004600095E80E9419028CE695E80E9419028DE930
:1004700095E80E94190282E395E80E94190210E0B3
:1004800000E03CE6E32E30E2F32E329A82ED95E86E
:100490000E9419020F5F1F4F81E1EBEFF5E8DE01CB
:1004A000119601900D928A95E1F7F801EF2FFF2741
:1004B000E295EF7081E090E08C0F9D1FE80FF91F2F
:1004C00080810E940002E12FFF27EF70FF2781E06B
:1004D00090E08C0F9D1FE80FF91F80810E940002A1
:1004E000F80124E0F695E7952A95E1F7EF70FF27EC
:1004F00081E090E08C0F9D1FE80FF91F80810E9422
:100500000002F801EF70FF2781E090E08C0F9D1F43
:10051000E80FF91F80810E9400028AEE95E80E9490
:10052000190282E3F7013197F1F78150D9F7ADCF86
:100530000D0A3D3D3D3D3D3D3D3D3D3D3D3D3D3D4E
:100540003D3D3D3D3D3D3D3D3D3D3D3D3D3D3D3DDB
:100550003D3D3D3D3D3D3D3D3D3D3D3D3D3D3D3DCB
:100560003D3D3D3D3D3D3D3D3D0D0A00205B53552C
:1005700043434553535D2055736572204170706C41
:1005800069636174696F6E2072756E6E696E672043
:10059000617420307830343030210D0A002041441D
:1005A0005820436F72652D44204669726D776172E1
:1005B00065206C61756E63686564206279204F7098
:1005C0007469626F6F745F4F4C342076322E300D39
:1005D0000A005B4150502048454152544245415425
:1005E0005D205469636B3D30780020284C454420E1
:1005F000546F67676C6564290D0A003031323334FB
:0C06000035363738394142434445460046
:0400000300000400F5
:00000001FF
