:1000000001C0E4C01124229A2A98809140008111F5
:1000100005C098ED21E094BF2093410083FD03C00B
:10002000982F977341F42A98809340008CBB80E00E
:10003000B5D00C940001A895019A099A049A079AE0
:100040000F9881E080930102809182128370813049
:1000500039F58CE590E0809308089093090881E0D9
:1000600080930B0893E0909307088093050880EC39
:10007000809306088BE092D00DE983E0D82E77D0EC
:10008000813489F474D0182F92D081E0123821F095
:1000900089E1113809F083E063D080E161D0EFCFCE
:1000A00083E790E0D8CF823419F484E188D0F5CF8B
:1000B000853411F485E0FACF853531F458D0C82F56
:1000C00056D0D82F74D0E9CF863521F484E077D08C
:1000D00080E0E2CF8436B9F44AD049D0182F47D017
:1000E000863479F4D05843D0888321961150D9F7BB
:1000F0005ED004BFD0920010809102108370E1F7AF
:10010000CCCFDC5EF0CF843791F431D030D0182FD3
:100110002ED0F82E4CD086E4F81207C0D058888133
:1001200021961ED01150D9F7B8CFDC5EF8CF8537B5
:1001300051F43DD08091001113D08091011110D065
:1001400080910211A9CF813519F481E027D0BACF6F
:10015000803511F480E0FACF803309F090CFB2CF30
:100160009091040895FFFCCF80930208089584E0E5
:1001700030E020E09091040897FF09C02A98909100
:1001800001088091000892FD01C0A89508952150B2
:10019000310981F7815061F7329AE9CF90910101DD
:1001A00090FDFCCF98ED94BF809300010895DFDFB0
:1001B000803219F081E0F2DFFFCF84E1D1CFCF931D
:1001C000C82FD5DFC150E9F7CF91F1CF683048F49F
:1001D0008DE984BF60930010809102108370E1F775
:0801E0000895FC01408308951D
:0201FE000119E5
:0E02000084E080932104809326040000FECF4A
:00000001FF
