:1000000001C0E3C01124229A2A98809140008111F6
:1000100005C098ED21E094BF2093410083FD03C00B
:10002000982F977341F42A98809340008CBB80E00E
:10003000B4D00C940001A895019A099A049A079AE1
:100040000F9881E080930102809182128370813049
:1000500039F58CE590E0809308089093090881E0D9
:1000600080930B0893E0909307088093050880EC39
:10007000809306088BE091D00DE983E0D82E76D0EE
:10008000813489F473D0182F91D081E0123821F097
:1000900089E1113809F083E062D080E160D0EFCFD0
:1000A00083E790E0D8CF823419F484E187D0F5CF8C
:1000B000853411F485E0FACF853531F457D0C82F57
:1000C00055D0D82F73D0E9CF863521F484E076D08F
:1000D00080E0E2CF8436B9F449D048D0182F46D01A
:1000E000863479F4D05842D0888321961150D9F7BC
:1000F0005DD004BFD0920010809102108370E1F7B0
:10010000CCCFDC5EF0CF843791F430D02FD0182FD5
:100110002DD0F82E4BD086E4F81207C0D058888135
:1001200021961DD01150D9F7B8CFDC5EF8CF8537B6
:1001300051F43CD08091001112D0809101110FD068
:1001400080910211A9CF813519F481E026D0BACF70
:10015000803309F4B7CF803509F4B4CF90CF9091B4
:10016000040895FFFCCF80930208089584E030E0F6
:1001700020E09091040897FF09C02A989091010807
:100180008091000892FD01C0A89508952150310981
:1001900081F7815061F7329AE9CF9091010190FD8A
:1001A000FCCF98ED94BF809300010895DFDF80328B
:1001B00019F081E0F2DFFFCF84E1D1CFCF93C82FD8
:1001C000D5DFC150E9F7CF91F1CF683048F48DE920
:1001D00084BF60930010809102108370E1F708954E
:0601E000FC0140830895BC
:0201FE000119E5
:00000001FF
