:100000003DC000004BC0000049C0000047C00000D8
:1000100045C0000043C0000041C000003FC00000D8
:100020003DC000003BC0000039C0000037C00000E8
:1000300035C0000033C0000031C000002FC00000F8
:100040002DC000002BC0000029C0000027C0000008
:1000500025C0000023C0000021C000001FC0000018
:100060001DC000001BC0000019C0000017C0000028
:1000700015C0000013C0000011C0000011241FBEF5
:10008000CFEFCDBFDFE3DEBF28E3A0E0B8E301C0E0
:100090001D92A430B207E1F76FD068C1B1CF2C98A0
:1000A000E6E5F0E03197F1F798E023E530E080FFF6
:1000B0000DC02C9A8695F9013197F1F79150B9F757
:1000C0002C9A86E590E00197F1F708952C98F2CFED
:1000D0000F931F93CF93DF93EC018C010F571F4FAA
:1000E0008991882319F0C017D10729F4DF91CF91A6
:1000F0001F910F910895D3DFF3CF1F93CF93DF9319
:10010000CDB7DEB76197CDBFDEBF182F81E1E0E745
:10011000F3E8DE01119601900D928A95E1F7E12F47
:10012000E295EF7081E090E08C0F9D1F8E0F911D86
:10013000FC018081B4DFE12FEF7081E090E08C0F53
:100140009D1F8E0F911DFC0180816196CDBFDEBF8A
:10015000DF91CF911F91A3CFCF93DF93EC018D2F30
:10016000CCDF8C2FDF91CF91C8CF9091040895FF01
:10017000FCCF809302080895CF93DF93CDB7DEB70D
:100180002697CDBFDEBF80B1826980B9099A81B15F
:100190008F7681B9029884B1846184B92A982C9AA7
:1001A00081E080930102809182128370813009F096
:1001B000BBC08BE292E0809308089093090881E02D
:1001C00080930B0883E0809307081092050886EC63
:1001D000809306088BE08093040881E893E878DF39
:1001E0008DEB93E875DF83E893E872DF81EF93E8A6
:1001F0006FDF86E294E86CDF80910808909109082F
:10020000ABDF8EE394E864DF8091040876DF89E455
:1002100094E85EDF8BE0982E9AE2C92ED12C20E480
:10022000722E3AE0A32EB12C40E3642EF12CE12C87
:100230008091040883FF16C08091003890910138A6
:1002400001968093003890930138909204088BE8CF
:1002500094E83EDF80910808909109087DDF88E8E6
:1002600094E836DF8091040887FF57C00091023878
:10027000109103380F5F1F4F00930238109303381B
:100280008091010880900008329A8FEB94E820DF7B
:100290001E82C801FE0136960115110509F047C0FE
:1002A0006D82FE013596CF0113DF88EC94E810DFF4
:1002B00080910808909109084FDF89ED94E808DFE4
:1002C000882D1BDF82EE94E803DF8091040815DFA0
:1002D00088E894E8FDDE81B1806981B9C6010197A3
:1002E000F1F785E542DF8AEA40DF812F3EDF802F8C
:1002F0003CDF882D3ADF8091040886FFFCCF7092A6
:100300000408C6010197F1F781B18F7681B9809118
:10031000040887FD14C09092040881E0E81AF108EF
:1003200009F086CF329A82CF86EB92E044CFB501B6
:1003300009D0805D8293CB010097C9F7B4CF80913B
:100340000008E5CFAA1BBB1B51E107C0AA1FBB1FBA
:10035000A617B70710F0A61BB70B881F991F5A9551
:10036000A9F780959095BC01CD010895F894FFCF31
:1003700030313233343536373839414243444546DB
:10038000000D0A3D3D3D3D3D3D3D3D3D3D3D3D3D3D
:100390003D3D3D3D3D3D3D3D3D3D3D3D3D3D3D3D8D
:1003A0003D3D3D3D3D3D3D3D3D3D3D3D3D3D3D3D7D
:1003B0003D3D3D3D3D3D3D3D3D3D0D0A0020202064
:1003C00041445820436F72652D442057552D303AD3
:1003D0002052532D34383520427265616B204765B9
:1003E0006E65726174696F6E2050726F62650D0A7E
:1003F00000205B434F4E4649475D205041313D54FC
:10040000582C205041323D52582C205041343D440C
:10041000452C205041373D2F52452C205042323D33
:100420004C45440D0A00205B494E49545D20496EFD
:10043000697469616C20424155443D307800205315
:1004400054415455533D3078000D0A204C69737463
:10045000656E696E6720666F722050432042726538
:10046000616B202B2030783535202853796E632935
:10047000206F6E20434F4D313920402031393230CA
:1004800030206270732E2E2E0D0A005B53594E439E
:100490005F4552525D2049534649463D3120284927
:1004A0006E636F6E73697374656E742053796E63D7
:1004B00020456467652920424155443D3078005B02
:1004C000425245414B202300204F4B5D2041757423
:1004D0006F424155443D30780020427974653D308B
:0904E00078002053543D307800EF
:00000001FF
