:100400002C98E6E5F0E03197F1F798E023E530E04D
:1004100080FF0DC02C9A8695F9013197F1F7915024
:10042000B9F72C9A86E590E00197F1F708952C989A
:10043000F2CFCF93DF93EC018991811103C0DF915B
:10044000CF9108950E940002F7CF81B1806981B9F0
:100450008EE393E00197F1F708958091040886FFF9
:10046000FCCF80E4809304088EE393E00197F1F7DA
:1004700081B18F7681B908959091040895FFFCCFE2
:100480008093020808950F931F93CF93DF938C01FD
:100490000E942502E8018991811106C0DF91CF9168
:1004A0001F910F910C942D020E943C02F4CF112455
:1004B0008FEF8DBF8FE38EBF80B1826980B9099ABB
:1004C00081B18F7681B984B1846184B92A982C9ADC
:1004D00081E080930102809182128370813039F42F
:1004E00087E594E0809308089093090806C08CE69D
:1004F00095E0809308089093090883E080930708AB
:100500001092050880EC8093060804C080910108D1
:10051000809100088091040887FDF8CF8EEA96E864
:100520000E9443028AEE96E80E94430283E297E823
:100530000E9443028AE597E80E9443028AE897E80E
:100540000E94430280EB96E80E94430282EC97E807
:100550000E94190290E080E010E000E02AE0C22E44
:10056000D12C34E6932E2091040827FF21C08091DE
:100570000108F0900008329A0E94250283EF97E864
:100580000E9443028F2D0E943C0283E098E80E9463
:1005900043020E942D0287E098E80E9419028F2DE5
:1005A0000E94000283E098E80E94190290E080E037
:1005B0000196813523EC920708F461C00F5F1F4F4D
:1005C000329A0E9425028BE198E80E9443020115AD
:1005D000110521F480E30E943C021DC0FE0131960A
:1005E000C801F12CE12C5F012FEFE21AF20AB601EB
:1005F0000E944303805D8193CB010097A9F781E0BE
:10060000E81AF108F501EE0DFF1D80810E943C0201
:10061000E114F104A1F786E398E80E9443020E94E6
:100620002D0287E598E80E9419020115110521F4B1
:1006300080E30E9400021DC0FE013196C801F12C2A
:10064000E12C5F012FEFE21AF20AB6010E94430388
:10065000805D8193CB010097A9F781E0E81AF1084A
:10066000F501EE0DFF1D80810E940002E114F104EE
:10067000A1F784E598E80E94190290E080E0292D16
:100680002A95F1F770CFAA1BBB1B51E107C0AA1F27
:10069000BB1FA617B70710F0A61BB70B881F991F23
:0E06A0005A95A9F780959095BC01CD0108955B
:1006AE000D0A3D3D3D3D3D3D3D3D3D3D3D3D3D3DCF
:1006BE003D3D3D3D3D3D3D3D3D3D3D3D3D3D3D3D5C
:1006CE003D3D3D3D3D3D3D3D3D3D3D3D3D3D3D3D4C
:1006DE003D3D3D3D3D3D3D3D3D0D0A00205B5355AD
:1006EE0043434553535D2041445820436F72652D5B
:1006FE00442052532D343835205573657220417085
:10070E00706C69636174696F6E2052756E6E696E7E
:10071E0067210D0A0020457865637574696E672040
:10072E006174203078303430302028466C61736824
:10073E00656420766961204F707469626F6F745FB3
:10074E004F4C342076322E30290D0A00204261752E
:10075E00643A2039363030206270732C20384E3196
:10076E00207C2052532D3438352044453D504134A1
:10077E002C202F52453D5041370D0A0020547970E0
:10078E006520616E792063686172616374657220A1
:10079E006F722073656E64207465787420746F2098
:1007AE00746573742052532D343835206563686F29
:1007BE00210D0A005B41505020424F4F545D205591
:1007CE00736572206170706C69636174696F6E20FD
:1007DE0072756E6E696E67206174203078303430B9
:1007EE0030210D0A005B436F72652D44204563680E
:1007FE006F5D202700270D0A005B52532D343835CC
:10080E002052585D20436861723A2027005B436F87
:10081E0072652D442052532D34383520486561724F
:10082E0074626561742023005D204170706C696391
:10083E006174696F6E20616C697665206174203019
:10084E007830343030210D0A005B4150502048453D
:10085E00415254424541545D205469636B2023003C
:0400000300000400F5
:00000001FF
