:1000000011248FEF8DBF8FE38EBF80B1826980B9DD
:10001000099A81B18F7681B984B1846184B92A98B3
:100020002C9A81E08093010286EB92E0809308088D
:100030009093090883E0809307081092050880ECEC
:100040008093060804C08091010880910008809187
:10005000040887FDF8CF109200381092013884E729
:1000600093E8EED08DE193E8EBD08AE493E8E8D012
:10007000809108089091090827D183E793E8E0D0A0
:10008000F12CE12CD12CC12C83E5682E712C92E34C
:10009000592E4E0189E1880E911C20E4222E809178
:1000A000040887FF8AC08091010880910008898335
:1000B000FE01329611E00AC025E02A95F1F7209161
:1000C000040827FD9AC00197B9F703C080EE9EE2AD
:1000D000F6CF8CEA93E8B4D0812FC7D082E094E8C1
:1000E000AFD06BC0398081E0381267C04A8083E0AE
:1000F000481263C064E0CE010196EFD02D813E81AD
:100100008217930709F056C000910038109101380A
:100110000F5F1F4F0093003810930138AB80BC80F5
:10012000BA24AB24BA242A9A398A4A8A8B818B8BC7
:100130008C818C8B1D8B0E8B66E0CE014196CDD0D1
:100140008F8B988FC3010197F1F781B1806981B9D5
:10015000852D8A95F1F7FE017196219180E593EC4A
:100160003091040835FD02C00197D1F720930208B1
:10017000E815F90591F780E593EC2091040826FD38
:1001800002C00197D1F72092040881B18F7681B91E
:10019000852D8A95F1F72A9889EC93E851D0C5010D
:1001A00093D08EED93E84CD0C8018ED082E094E8D5
:1001B00047D003C088EE93E843D08FEFC81AD80A1F
:1001C00009F06DCF8FEFE81AF80AC70183709927FD
:1001D000892B09F064CF85E094E832D0809104083F
:1001E00044D08EED93E82CD0809100389091013866
:1001F0006BD082E094E824D052CF809101081F5F39
:10020000809100088193163009F060CF6BCF2C9855
:10021000E6E5F0E03197F1F798E023E530E080FF84
:100220000DC02C9A8695F9013197F1F79150B9F7E5
:100230002C9A86E590E00197F1F708952C98F2CF7B
:100240000F931F93CF93DF93EC018C010F571F4F38
:100250008991882319F0C017D10729F4DF91CF9134
:100260001F910F910895D3DFF3CF1F93CF93DF93A7
:10027000CDB7DEB76197CDBFDEBF182F81E1ECE0CF
:10028000F3E8DE01119601900D928A95E1F7E12FD6
:10029000E295EF7081E090E08C0F9D1F8E0F911D15
:1002A000FC018081B4DFE12FEF7081E090E08C0FE2
:1002B0009D1F8E0F911DFC0180816196CDBFDEBF19
:1002C000DF91CF911F91A3CFCF93DF93EC018D2FBF
:1002D000CCDF8C2FDF91CF91C8CFAC01FC018FEF29
:1002E0009FEF2191822728E0DC01A170BB27969522
:1002F0008795AB2B21F031E0832730EA93272150FB
:0C03000099F72E2F241B261760F3089598
:10030C00303132333435363738394142434445463F
:10031C0000205B424F4F545D20436F72652D44208B
:10032C004D4F444255532D5254552042656E6368CF
:10033C0020536C6176652076312E310D0A002055E4
:10034C0053415254303A204E6F726D616C205541BE
:10035C00525420402031392C3230302062707320BE
:10036C0028424155443D00290D0A3D3D3D3D3D3D52
:10037C003D3D3D3D3D3D3D3D3D3D3D3D3D3D3D3DA1
:10038C003D3D3D3D3D3D3D3D3D3D3D3D3D3D3D3D91
:10039C003D3D3D3D3D3D3D3D3D3D3D3D3D0D0A0021
:1003AC005B4D4F44425553204552525D20496E637C
:1003BC006F6D706C657465206C656E3D005B4D4FA8
:1003CC004442555320504153535D205345513D30C9
:1003DC00780020434F554E543D3078005B4D4F44D0
:1003EC00425553204552525D20435243206D697350
:1003FC006D61746368210D0A005B49444C455D20B6
:06040C0053543D3078005E
:00000001FF
