:1000000011248FEF8DBF8FE38EBF80B1826980B9DD
:10001000099A81B18F7681B984B1846184B92A98B3
:100020002C9A81E08093010286EB92E0809308088D
:100030009093090883E0809307081092050880ECEC
:100040008093060804C08091010880910008809187
:10005000040887FDF8CF8CE793E8F6D085E293E8B3
:10006000F3D082E593E8F0D08091080890910908D8
:100070002FD18BE793E8E8D0F12CE12CD12CC12CC7
:1000800083E5682E712C92E3592E4E0189E1880E8A
:10009000911C20E4222E8091040887FF92C0809159
:1000A000010880910008898311E080EB94E003C08F
:1000B00025E02A95F1F72091040827FDA2C00197B9
:1000C000B9F7A5C080910008E1E0F0E0EC0FFD1F5A
:1000D000E10FF11D80831F5FE8CF398081E0381286
:1000E00070C04A8083E048126CC064E0CE01019683
:1000F000F8D02D813E818217930709F056C00091F8
:100100000038109101380F5F1F4F00930038109393
:100110000138AB80BC80BA24AB24BA242A9A398A2D
:100120004A8A8B818B8B8C818C8B1D8B0E8B66E02E
:10013000CE014196D6D08F8B988FC3010197F1F7EE
:1001400081B1806981B9852D8A95F1F7FE0171969B
:10015000219180E593EC3091040835FD02C00197B0
:10016000D1F720930208E815F90591F780E593ECA3
:100170002091040826FD02C00197D1F720920408BF
:1001800081B18F7681B9852D8A95F1F72A9884EB14
:1001900093E85AD0C5019CD089EC93E855D0C801AA
:1001A00097D08DEE93E850D00CC083ED93E84CD0FF
:1001B00008C080EF93E848D0812F5BD08DEE93E8A4
:1001C00043D08FEFC81AD80A09F065CF8FEFE81A2D
:1001D000F80AC70183709927892B09F05CCF8DE05D
:1001E00094E832D08091040844D089EC93E82CD074
:1001F00080910038909101386BD08DEE93E824D037
:100200004ACF80910108103109F44FCF5BCF1630EF
:1002100009F463CFCECF2C98E6E5F0E03197F1F703
:1002200098E023E530E080FF0DC02C9A8695F90117
:100230003197F1F79150B9F72C9A86E590E0019744
:10024000F1F708952C98F2CF0F931F93CF93DF937C
:10025000EC018C010F571F4F8991882319F0C017AB
:10026000D10729F4DF91CF911F910F910895D3DF2A
:10027000F3CF1F93CF93DF93CDB7DEB76197CDBF99
:10028000DEBF182F81E1E4E1F3E8DE011196019071
:100290000D928A95E1F7E12FE295EF7081E090E011
:1002A0008C0F9D1F8E0F911DFC018081B4DFE12F0B
:1002B000EF7081E090E08C0F9D1F8E0F911DFC016F
:1002C00080816196CDBFDEBFDF91CF911F91A3CF1B
:1002D000CF93DF93EC018D2FCCDF8C2FDF91CF916B
:1002E000C8CFAC01FC018FEF9FEF2191822728E05E
:1002F000DC01A170BB2796958795AB2B21F031E0EF
:10030000832730EA9327215099F72E2F241B261795
:0403100060F30895F9
:100314003031323334353637383941424344454637
:1003240000205B424F4F545D20436F72652D442083
:100334004D4F444255532D5254552042656E6368C7
:1003440020536C6176652076312E300D0A002055DD
:1003540053415254303A204E6F726D616C205541B6
:10036400525420402031392C3230302062707320B6
:1003740028424155443D00290D0A3D3D3D3D3D3D4A
:100384003D3D3D3D3D3D3D3D3D3D3D3D3D3D3D3D99
:100394003D3D3D3D3D3D3D3D3D3D3D3D3D3D3D3D89
:1003A4003D3D3D3D3D3D3D3D3D3D3D3D3D0D0A0019
:1003B4005B4D4F4442555320504153535D205345A8
:1003C400513D30780020434F554E543D3078005B0A
:1003D4004D4F44425553204552525D2043524320D1
:1003E4006D69736D61746368210D0A005B4D4F4440
:1003F400425553204552525D20556E6578706563B1
:10040400746564206C656E3D005B49444C455D2019
:0604140053543D30780056
:00000001FF
